:100000000C9461000C9473000C9473000C947300B6
:100010000C9473000C9473000C9473000C94730094
:100020000C9473000C9473000C9473000C94730084
:100030000C9473000C9473000C9473000C94730074
:100040000C944C010C9473000C9473000C9473008A
:100050000C9473000C9473000C9473000C94730054
:100060000C9473000C94730000000000240027001F
:100070002A0000000000250028002B0000000000DE
:1000800023002600290004040404040404040202DA
:100090000202020203030303030301020408102007
:1000A0004080010204081020010204081020000012
:1000B0000008000201000003040700000000000027
:1000C000000011241FBECFEFD8E0DEBFCDBF21E07E
:1000D000A0E0B1E001C01D92AB30B207E1F70E9491
:1000E00096010C94AD020C940000833081F028F44A
:1000F000813099F08230A9F008958730A9F08830D6
:10010000C9F08430B1F4809180008F7D03C080916C
:1001100080008F7780938000089584B58F7784BDA9
:10012000089584B58F7DFBCF8091B0008F77809349
:10013000B00008958091B0008F7DF9CFCF93DF9309
:10014000282F30E0F901E255FF4F8491F901E6567E
:10015000FF4FD491F901EA57FF4FC491CC23A1F08E
:1001600081110E947500EC2FF0E0EE0FFF1FE458A4
:10017000FF4FA591B491EC91ED2381E090E009F45B
:1001800080E0DF91CF91089580E090E0FACF1F9357
:10019000CF93DF93282F30E0F901E255FF4F849190
:1001A000F901E656FF4FD491F901EA57FF4FC49188
:1001B000CC23A9F0162F81110E947500EC2FF0E0DE
:1001C000EE0FFF1FEE58FF4FA591B4918FB7F89433
:1001D000EC91111108C0D095DE23DC938FBFDF9125
:1001E000CF911F910895DE2BF8CF3FB7F8948091FF
:1001F000070190910801A0910901B0910A0126B56B
:10020000A89B05C02F3F19F00196A11DB11D3FBF4E
:10021000BA2FA92F982F8827BC01CD01620F711D1D
:10022000811D911D42E0660F771F881F991F4A9517
:10023000D1F708958F929F92AF92BF92CF92DF92A3
:10024000EF92FF924B015C010E94F5006B017C0173
:100250000E94F5006C197D098E099F09683E734064
:1002600081059105A8F321E0821A9108A108B1083F
:1002700088EEC80E83E0D81EE11CF11C81149104A5
:10028000A104B10429F7FF90EF90DF90CF90BF90C9
:10029000AF909F908F9008951F920F920FB60F927C
:1002A00011242F933F938F939F93AF93BF9380918C
:1002B000030190910401A0910501B09106013091D4
:1002C000020123E0230F2D3758F50196A11DB11D22
:1002D000209302018093030190930401A0930501F0
:1002E000B09306018091070190910801A091090146
:1002F000B0910A010196A11DB11D80930701909351
:100300000801A0930901B0930A01BF91AF919F9199
:100310008F913F912F910F900FBE0F901F901895C6
:1003200026E8230F0296A11DB11DD2CF789484B583
:10033000826084BD84B5816084BD85B5826085BDE1
:1003400085B5816085BD80916E00816080936E006F
:100350001092810080918100826080938100809161
:100360008100816080938100809180008160809312
:1003700080008091B10084608093B1008091B000D2
:1003800081608093B00080917A00846080937A00CD
:1003900080917A00826080937A0080917A008160F7
:1003A00080937A0080917A00806880937A0010921E
:1003B000C10042E050E0FA01E656FF4F2491FA01F5
:1003C000EA57FF4F84918823C1F090E0880F991F6E
:1003D000FC01E859FF4FC591D491FC01EE58FF4F45
:1003E000A591B4919FB7F8943881822F809583238B
:1003F0008883EC91E22BEC939FBF4330510509F0C9
:100400005FC0C4E0D0E01C2FFE01E656FF4F2491F0
:10041000FE01EA57FF4F8491882399F090E0880FFE
:10042000991FFC01E859FF4FA591B491FC01EE58CA
:10043000FF4F859194918FB7F894EC91E22BEC9358
:100440008FBF60E0812F0E94C70064EF71E080E001
:1004500090E00E941A0161E0812F0E94C70068EEBF
:1004600073E080E090E00E941A012196CA30D10525
:1004700009F0C9CF00E010E082E0E82EF12C82E024
:100480000E949E000197B1F48091000190910101BA
:10049000019685309105BCF4909301018093000191
:1004A00080910001909101018130910549F1F4F4AE
:1004B000892B69F00115110511F30E940000DFCFAF
:1004C00043E050E078CF1092010110920001C4E0A7
:1004D00061E08C2F0E94C70062E370E080E090E052
:1004E0000E941A01CF5FCA3099F7E4CF823091059C
:1004F00029F10397F9F61092010110920001DACF69
:1005000060E084E00E94C70068EB7BE080E090E060
:100510000E941A0160E085E00E94C70068E873E16C
:1005200080E090E00E941A0183E00E949E00019703
:1005300009F6F0920101E0920001B2CF61E084E09F
:100540000E94C70068EB7BE080E090E00E941A0107
:0E05500061E085E00E94C700ADCFF894FFCFB8
:00000001FF
